S00F00006D78745F6472762E7372656311
S1130000D821002029010000210200002102000063
S113001000000000000000000000000000000000DC
S113002000000000000000000000000021020000A9
S11300300000000000000000210200002102000076
S113004021020000210200002102000061230000BF
S11300502102000021020000210200002102000010
S11300602102000021020000210200002102000000
S113007021020000210200002102000021020000F0
S113008021020000210200002102000021020000E0
S113009021020000210200002102000021020000D0
S11300A021020000210200002102000021020000C0
S11300B00000000010B5064C2378002B07D1054B37
S11300C0002B02D0044800E000BF0123237010BDC0
S11300D01800002000000000BC430000084B10B5CD
S11300E0002B03D00749084800E000BF0748036815
S11300F0002B00D110BD064B002BFBD09847F9E72D
S1130100000000001C000020BC430000BC430000B1
S11301100000000080B500AF024B9847C046BD46C2
S113012080BDC0462D0A000080B582B000AF2F4BC1
S11301307B602F4B3B607A683B689A420CD007E0A7
S11301403B681A1D3A607A68111D796012681A605A
S11301503A68284B9A42F3D3274B3B6004E03B6850
S11301601A1D3A6000221A603A68244B9A42F6D368
S1130170234B7B60234B7A68FF218A439A60224A8F
S113018090235B000221D150204AD37803218B4372
S1130190191C02230B43D3701C4AD3780C218B43C4
S11301A0191C08230B43D370194A937B30218B43CA
S11301B0191C20230B439373154A937B0C218B4307
S11301C0191C08230B439373114A937B03218B431C
S11301D0191C02230B4393730E4A536880210B436B
S11301E053600D4B98470D4B9847FEE7BC43000006
S11301F0000000201800002018000020D801002072
S11302000000000000ED00E00070004100500041DB
S11302100048004100400041A93300009133000030
S113022080B500AFFEE780B582B000AF78600A0009
S1130230BB1C1A807B68BA1C12885A80C046BD4613
S113024002B080BD80B584B000AFF8607A600B2343
S1130250FB180A1C1A700B23FB181B78FA68DB01C5
S1130260D31804337A681A60C046BD4604B080BD12
S113027080B584B000AFF8607A600B23FB180A1CC9
S11302801A700B23FB181B78FA68DB01D318183398
S11302907A681A60C046BD4604B080BD80B584B09B
S11302A000AFF8607A600B23FB180A1C1A700B234A
S11302B0FB181B78FA68DB01D31814337A681A60C8
S11302C0C046BD4604B080BD90B585B000AF78602F
S11302D00C0010001900FB1C221C1A70BB1C021C11
S11302E01A707B1C0A1C1A70FB1C1978BB1C1A7828
S11302F00F23FB1878683024C90141188A18121991
S113030012781A700F23FB180F22BA1812780F21D3
S11303108A431A707B1C1B780F221340D9B20F2317
S1130320FB180F22BA1812780A431A70FB1C1A78A9
S1130330BB1C1B7879683020D2018A18D3181B188B
S11303400F22BA1812781A70C046BD4605B090BD87
S113035090B585B000AF78600C0010001900FB1C4C
S1130360221C1A70BB1C021C1A707B1C0A1C1A70FB
S1130370FB1C1978BB1C1A780F23FB1878683024EF
S1130380C90141188A18121912781A700F23FB1820
S11303900F22BA1812780F210A401A707B1C1B789E
S11303A01B01D9B20F23FB180F22BA1812780A4383
S11303B01A70FB1C1A78BB1C1B7879683020D20198
S11303C08A18D3181B180F22BA1812781A70C0464C
S11303D0BD4605B090BD90B585B000AF78600C0007
S11303E010001900FB1C221C1A70BB1C021C1A7082
S11303F07B1C0A1C1A70FB1C1978BB1C1A780F236F
S1130400FB1878684024C90141188A181219127817
S11304101A700F23FB180F22BA18127801218A438D
S11304201A707B1C19780F23FB180F22BA18127844
S11304300A431A70FB1C1A78BB1C1B78796840208D
S1130440D2018A18D3181B180F22BA1812781A70FE
S1130450C046BD4605B090BDB0B582B000AF78606F
S113046008001100FB1C021C1A70BB1C0A1C1A7029
S1130470FB1C1A78BB1C1B78F91C0878B91C09787A
S11304807C684025C0012018411849190978C9B26F
S113049004200143CCB279684020D2018A18D318D1
S11304A01B18221C1A70C046BD4602B0B0BDB0B5C0
S11304B082B000AF786008001100FB1C021C1A70A7
S11304C0BB1C0A1C1A70FB1C1A78BB1C1B78F91C79
S11304D00878B91C09787C684025C00120184118A7
S11304E049190978C9B204208143CCB27968402003
S11304F0D2018A18D3181B18221C1A70C046BD4694
S113050002B0B0BD90B583B000AF04000800110084
S1130510FB1D221C1A70BB1D021C1A707B1D0A1CB9
S11305201A707B1D1B78012B0CD0022B29D0002BB9
S113053046D1BB1D1A78FB1D1B7827481900274B91
S1130540984744E0BB1D1B7801229A40FB1D197893
S1130550C023DB051800224B9847BB1D1A78FB1DEE
S11305601B781D4819001F4B9847BB1D1B7801229F
S11305709A40FB1D1978C023DB0518001A4B9847D5
S113058025E0BB1D1B7801229A40FB1D1978C0236E
S1130590DB051800124B9847BB1D1A78FB1D1B780E
S11305A00D4819000F4B9847BB1D1B7801229A4038
S11305B0FB1D1978C023DB0518000C4B984706E097
S11305C00B4B8822190000200A4B9847C046C046AE
S11305D0BD4603B090BDC04600440041AF040000D6
S11305E04502000059040000710200009D02000051
S11305F0203400005D1E000090B585B000AF786027
S113060039607B685A090F23FB181A707B68DAB2C9
S11306100E23FB181F210A401A703B6801330AD1CC
S11306200E23FB181A780F23FB1819781B48002394
S11306301B4CA0472EE00E23FB181A780F23FB183F
S1130640197816480123164CA0470E23FB181B7873
S1130650012213400FD00E23FB181B785B08DAB27B
S11306603B68D8B20F23FB1819780C4C0300200008
S11306700C4CA0470EE00E23FB181B785B08DAB283
S11306803B68D8B20F23FB181978044C03002000F0
S1130690054CA047C046BD4605B090BD004400418E
S11306A0D703000051030000C902000080B582B0E6
S11306B000AF0200FB1D1A70BB1D0A1C1A70FB1D43
S11306C01B785B09D8B2FB1D1B781F221340D9B2DB
S11306D0BB1D1B781A00034B9847C046BD4602B0A9
S11306E080BDC0460505000080B582B000AF7860CB
S11306F039603A687B6811001800034B9847C0467C
S1130700BD4602B080BDC046F905000080B500AF0B
S1130710024B9847C046BD4680BDC046891F0000B5
S113072080B582B000AF0200FB1D1A70BB1D0A1C0D
S11307301A70FB1D1B789BB23F2213409AB2BB1D5B
S11307401B789BB21B0299B2F0231B010B409BB296
S113075013439BB28022D20113439BB2044A190073
S11307601000044B9847C046BD4602B080BDC04649
S1130770000C00402702000080B582B000AF786012
S11307807B68012B01D1002323E07B68022B01D17C
S113079001231EE07B68032B01D1022319E07B684F
S11307A00E4A934201D1032313E07B680C4A93421F
S11307B001D104230DE07B680A4A934201D1052349
S11307C007E07B68084A934201D1062301E00D2328
S11307D05B421800BD4602B080BDC0460020004107
S11307E000400041004800410050004180B582B003
S11307F000AF78607A688223DB059A4201D1002336
S11308001FE07B68114A934201D1012319E07B6800
S11308100F4A934201D1022313E07B680D4A9342AD
S113082001D103230DE07B680B4A934201D10423D9
S113083007E07B68094A934201D1052301E00D23B7
S11308405B421800BD4602B080BDC0460020004196
S11308500040004100440041004800410050004174
S113086080B584B000AF02003960FB1D1A703B688C
S11308709B0A3F221340FB60FB1D1B78012B1ED0FB
S113088002DC002B05D044E0022B22D0032B36D00F
S11308903FE03B681800264B9847031E40DB3B684B
S11308A01800234B98470300FB60224B214A5269EE
S11308B00120F968884001000A435A6130E01D4B69
S11308C01C4A92690120F968884001000A439A6130
S11308D029E03B681800184B9847031E22DB3B684D
S11308E01800154B98470300FB60124B114AD2695C
S11308F00120F968884001000A43DA6112E00D4BD7
S11309000C4A126A0120F968884001000A431A62FD
S113091009E00A4B9B2219000020094B984702E08A
S1130920C04600E0C046C046BD4604B080BDC046D7
S11309307907000000040040ED0700003C3400008B
S11309405D1E000080B500AF00210820094B9847C8
S1130950094B19000820094B984700210920054B31
S11309609847074B19000920044B9847C046BD46D9
S113097080BDC046AD06000002000800E906000084
S11309800200090080B500AF074B19000320074B94
S1130990984700211420064B984700211320044B4C
S11309A09847C046BD4680BD00080042610800006B
S11309B02107000080B500AF064B9847064A074B55
S11309C011001800064B9847064B9847C046BD4691
S11309D080BDC046850900000008004238000020A0
S11309E0B51A00004509000080B500AF094B190095
S11309F00120094B984700210420084B9847084BD5
S1130A00984702000349074B1800074B9847C04614
S1130A10BD4680BD001400406108000021070000AD
S1130A205523000058000020711C000080B500AF61
S1130A30044B9847044B9847044B9847C046BD461F
S1130A4080BDC0460D070000B5090000E90900009B
S1130A5090B5CBB000AF04000800BA6019005E4B3B
S1130A60942252009446BC446344221C1A705B4B8B
S1130A70942252009446BC446344021C1A80584B8E
S1130A80942252009446BC4463440A1C1A800023F6
S1130A9090225200BA1813602823FF33FB18002257
S1130AA01A704F4B942252009446BC4463441B88F2
S1130AB0FA2B02D901235B4289E0494B942252006C
S1130AC09446BC4463441B88DAB22023FF33FB18EA
S1130AD002321A70414B942252009446BC4463443F
S1130AE01B88DAB28A235B00FB181A703B4B9422F2
S1130AF052009446BC4463441B881B0A9BB2DAB27E
S1130B008A235B00FB185A708C235B00FA18354B60
S1130B1011001800344B9847324B1800334B984758
S1130B202D4B942252009446BC4463441B7819B262
S1130B3080231A012B4B18002D4B98472D4B9422E0
S1130B4052009446BC4463448A225200BA18128864
S1130B501A801423FB180233214A942149008C463D
S1130B60BC4462441288B9681800234B98478C230C
S1130B705B00FB1818682023FF33FB181B789AB21C
S1130B801423FB1819001D4B9847030090225200B0
S1130B90BA1813602023FF33FB181A7890235B00E4
S1130BA0FB181B689A4211D02823FF33FB181B78CB
S1130BB001225340DBB2002B05D02823FF33FB185E
S1130BC001221A70D3E701235B4200E000231800DE
S1130BD0BD464BB090BDC046E7FEFFFFE4FEFFFFFD
S1130BE0DEFEFFFF38000020751B0000151B00000F
S1130BF0351B0000ECFEFFFF0F340000951B0000C6
S1130C0090B589B000AF04000800BA6019000F2342
S1130C10FB18221C1A700C23FB18021C1A80BB1D23
S1130C200A1C1A800023BB611F23FB1800221A70C0
S1130C300C23FB181B88DAB21023FB181A700C2340
S1130C40FB181B881B0A9BB2DAB21023FB185A70DC
S1130C501423FA18284B11001800284B9847264BE8
S1130C601800274B98470F23FB181B7819B28023D1
S1130C701A01214B1800234B98477B691022B9189D
S1130C8002221800204B98470300BB61BB69022B6A
S1130C900FD01F23FB181B7801225340DBB2002B1B
S1130CA004D01F23FB1801221A70E6E701235B42DC
S1130CB01EE07869BB1D1A88BB681900134B98475E
S1130CC00300BB61BB1D1A88BB699A420FD01F2366
S1130CD0FB181B7801225340DBB2002B04D01F23E6
S1130CE0FB1801221A70E4E701235B4200E00023B1
S1130CF01800BD4609B090BD38000020751B0000E7
S1130D00151B0000351B0000951B0000E91B0000AB
S1130D1080B582B000AF78607B685A78194B1A7737
S1130D207B6802331B781A007B6803331B781B0231
S1130D301A437B6804331B781B0413431A00114BBA
S1130D405A61104B5B78032B0BD10E4B5B690E4A37
S1130D50934203D10B4B05225A7002E0094B062241
S1130D605A70084B1B7F5BB2002B07DA054B5B699B
S1130D70054A934202D0034B03225A70C046BD4633
S1130D8002B080BD740000207902C70080B582B033
S1130D9000AF78607B68591C054B1D229B18072205
S1130DA01800044B9847C046BD4602B080BDC046FB
S1130DB0740000200F34000080B584B000AF786068
S1130DC02C4BBB607B681A782A4B38215B5CD31AA6
S1130DD0DAB2294B1A707B685A78274B5A707B68B1
S1130DE002331B781B011AB27B6804331B781B097E
S1130DF0DBB21BB20F210B401BB213431AB20E23FA
S1130E00FB181A807B6803331B781B011AB27B68BA
S1130E1004331B781BB20F210B401BB213431AB2CD
S1130E200C23FB181A80BB681B8B144A934206D808
S1130E300E23FB180E22BA18128892081A80BB6877
S1130E405B8B0E4A934206D80C23FB180C22BA186B
S1130E50128892081A80084B0E22BA1812885A80F7
S1130E60054B0C22BA1812889A80C046BD4604B0BD
S1130E7080BDC04674000020CC010020FF030000A8
S1130E8080B584B000AF78601D4BFB607B681A7836
S1130E90FB683E215B5CD31ADBB2023BDAB2194B2E
S1130EA01A707B685A78174B5A707B6802331B7828
S1130EB01AB27B6803331B781B021BB213431AB2AA
S1130EC00A23FB181A807B6804331B781AB27B68E8
S1130ED005331B781B021BB213431AB20823FB18F9
S1130EE01A80084B0A22BA1812885A80054B082225
S1130EF0BA1812889A80C046BD4604B080BDC04668
S1130F0074000020CC01002080B584B000AF78606C
S1130F102C4BFB60FB685B8D002B1CD07B68023381
S1130F201B781AB27B6803331B781B021BB2134372
S1130F301BB29AB2244BDA807B6804331B781AB252
S1130F407B6805331B781B021BB213431BB29AB296
S1130F501D4B1A8132E0FB689B8E002B2ED07B68E0
S1130F601978FB683A229A5C0B23FB188A1A1A70C8
S1130F700B23FB181B78012B1FD80B23FB181B78A2
S1130F800B22BA181278023211007A6852181278B9
S1130F9011B20B22BA181278033210007A681218B0
S1130FA01278120212B20A4312B291B2064A5B00DC
S1130FB0D31806330A1C1A8000E0C046BD4604B0AC
S1130FC080BDC04674000020CC01002080B586B0EE
S1130FD000AF786000233B610F23FB187A68127816
S1130FE01A704F4BBB601723FB1800221A7016238C
S1130FF0FB1800221A700F23FB181B78FF2B01D15A
S1131000002388E0BB6837229B5C0F22BA18127851
S11310109A4204D17B681800424B98475EE0BB6853
S113102038229B5C0F22BA1812789A4210D3BB68FC
S113103039229B5C0F22BA1812789A4208D87B682E
S11310401800394B98471623FB1801221A7045E003
S1131050BB683E229B5C0F22BA1812789A4210D3C6
S1131060BB683F229B5C0F22BA1812789A4208D8B8
S11310707B6818002D4B98471623FB1801221A7021
S11310802CE0BB683D229B5C0F22BA1812789A426E
S113109024D0BB683C229B5C0F22BA1812789A4277
S11310A004D17B681800224B984717E0BB683A22AA
S11310B09B5C0F22BA1812789A420FD3BB683B226A
S11310C09B5C0F22BA1812789A4207D87B681800E2
S11310D0184B98471723FB1801221A70164B1B68EC
S11310E0002B09D01623FB181B78002B04D0124BBD
S11310F01B687A6810009847104B1B68002B09D0B6
S11311001723FB181B78002B04D00C4B1B687A6840
S1131110100098473B691800BD4606B080BDC04624
S113112074000020110D0000B90D0000810E0000B4
S11311308D0D0000090F0000C8010020C000002030
S113114090B585B000AF184BFB60FB681878FB685E
S11311505B8D123399B23A1D0423144CA04703004B
S1131160BB60BB68002B01D0BB6818E03B1D5B78FB
S11311701B021AB23B1D1B781BB213431BB29AB25B
S1131180FB681A833B1DDB781B021AB23B1D9B785C
S11311901BB213431BB29AB2FB685A830023180094
S11311A0BD4605B090BDC04674000020010C00008F
S11311B080B500AF00231800BD4680BD80B588B05F
S11311C000AF78600023FB611723FB1801221A701B
S11311D0994B3B610023BB610DE1BA6913005B00CD
S11311E09B185B001A007B689B18FB60FB685B79AB
S11311F0002B1CD01623FB181722BA1812781A7069
S1131200FB685B79FA6812790132D2B25343D9B2DE
S11312101723FB181722BA1812788A181A70152384
S1131220FB181722BA181278013A1A7007E016232D
S1131230FB1800221A701523FB1800221A70FB6891
S11312401B78053B5F2B00D9ABE09A007B4BD3188E
S11312501B689F46FB68D9783B6936229954FB6822
S11312605A789B781B0213439AB23B699A849BE099
S11312703B691622BA18372112785A54FB685A78F7
S11312809B781B0213439AB23B69DA848CE0FB68B7
S11312905A789B781B0213439AB23B691A8583E000
S11312A0FB685A789B781B0213439AB23B695A85B0
S11312B03B6909221A733B691622BA18382112783D
S11312C05A54FB685A791623FB181B78D318DBB2DF
S11312D0013BD9B23B6939229954FB685A793B697D
S11312E05A73574B98470300FB61FB69002B5AD094
S11312F0FB699CE03B691622BA183A2112785A54C9
S11313003B691522BA183B2112785A544CE03B69C8
S11313101622BA183C2112785A54FB685A789B78E2
S11313201B0213439AB23B69DA853DE0FB685A78A5
S11313309B781B0213439AB23B695A8634E03B699B
S11313401622BA183D2112785A542DE0FB685A78B7
S11313509B781B0213439AB23B691A8624E0FB680C
S11313605A789B781B0213439AB23B699A863B696D
S113137064221A733B691622BA183E2112785A5411
S11313803B691522BA183F2112785A54FB685B79DD
S1131390023BDAB23B695A732A4B98470300FB615C
S11313A002E0C04600E0C046FB685A789B781B0206
S11313B013439AB2FB68DB7801339BB2F96809796D
S11313C0013189B24B439BB2D3189AB20A23FB185A
S11313D0013A1A803B695B890A22BA1812889A4238
S11313E006D30A23FB181B8801339AB23B695A813E
S11313F0BB690133BB613B691B7A1A00BB699A4222
S113140000DDEAE63B691722BA1812789A733B6941
S11314105B8E002B0AD03B699B8C1A003B695B8E68
S113142001339A4202D004235B4200E0FB691800B6
S1131430BD4608B080BDC04674000020484100008D
S113144041110000B111000080B584B000AF786094
S113145008001100FB1C021C1A70BB1C0A1C1A7029
S1131460BB1C1B781A02FB1C1B781343BB607B68F4
S11314701B685A00BB685340FB60FA6880235B0416
S1131480134004D0054B1B68FA685340FB607B682B
S1131490FA681A60C046BD4604B080BDD44200005C
S11314A080B586B000AF786008001100BB1C021C38
S11314B01A803B000A1C1A800023FB60BB1C1B889B
S11314C07A68D3187B613B001B88013B7A68D31888
S11314D03B613A00BB1C12881B889A420FD2052339
S11314E05B4221E07B6919787B6901331A780C230C
S11314F0FB1818000E4B98477B6902337B617A69AD
S11315003B699A42EED37A693B699A4207D17B6977
S113151019780C23FB1800221800054B9847FB6828
S11315201B021B0AFB60FB681800BD4606B080BDA9
S11315304914000080B586B000AFF860B960FB1DA7
S11315401A701723FB1800221A7019E01723FB18CE
S11315501A7813005B009B185B001A00BB689B1889
S11315603B613B691B78FA1D12789A4201D13B69B1
S11315700EE01723FB181A781723FB1801321A7090
S1131580FB681B7A1722BA1812789A42DED300231A
S11315901800BD4606B080BD90B583B000AF78603A
S11315A008001100FB1C021C1A70BB1C0A1C1A70D8
S11315B07B6818787B68DA8CFB1C1B789BB2D31889
S11315C099B2BA1C0123034CA04703001800BD467E
S11315D003B090BD510A000090B589B000AF1F233D
S11315E0FB1800221A700E23FB185A4A1A80002393
S11315F03B610023BB60584B7B605849584B0B221E
S11316001800584B9847031E02D008235B429DE004
S11316107B680233544907221800524B9847031E33
S113162002D009235B4291E07B685B694F4A934295
S113163001D100238AE04E4BBB611623FB18002224
S11316401A806FE0BB695A1CBA61FA1C1B781370CC
S1131650BB695A1CBA61BA1C1B781370BB695A1C4B
S1131660BA617A1C1B7813707B1C1B789AB2162300
S1131670FB181B88D3189AB21623FB1803321A805E
S1131680FA1C1F23FB1812781B789A4212D039498E
S1131690FB1C1A787B681800374B984703003B61A2
S11316A03B69002B07D11F23FB181F22BA1812789D
S11316B01A7037E0C0463B691B79BA1C12789A420B
S11316C006D91F23FB181F22BA1812781A7029E0B2
S11316D07B6818783B695A789B781B0213439AB24B
S11316E0BB1C1B789BB23969C978013189B24B4361
S11316F09BB2D31899B27B1C1B789BB2BA691F4C5E
S1131700A0470300BB60BB68002B01D0BB681DE091
S11317101F23FB183A6912781A707B1C1B78BA696C
S1131720D318BB611623FA180E23FB1812881B88E2
S11317309A4287D37B68552201211800104B9847A1
S11317400300BB60044B04225A70BB681800BD46FA
S113175009B090BDD80C000074000020543400007F
S1131760C8420000F1330000603400007902C70071
S113177070340000CB00002035150000510A000031
S11317809915000090B587B000AF454B7B617B692C
S11317901878444A07230021434CA04703003B61C7
S11317A03B69002B01D03B6975E03E4B1B78A42BB1
S11317B002D007235B426EE03A4B9B799BB21A1C22
S11317C0131CDB189B18DB189AB20E23FB180A3281
S11317D01A800E23FB181A8882235B009A4202D9CE
S11317E001235B4257E07B6918780E23FB181B88A2
S11317F0073B9BB22D4A07212B4CA04703003B61BA
S11318003B69002B01D03B6945E00E23FB181B8884
S1131810033B244AD35C19000E23FB181B88023BAC
S1131820204AD35C1B020A001A430E23FB181B88B0
S1131830013B1C49CB5C1B041343BB600E23FB1808
S11318401B88033B9AB2174B00211800184B98478A
S113185003007B607A68BB689A4202D006235B422D
S113186019E0BA680E4B1A610D4B02220D499B1800
S1131870072218000F4B98470C4B18000E4B984743
S113188003003B613B69002B01D03B6903E0044B3F
S113189001225A7000231800BD4607B090BDC0460F
S11318A074000020C4000020010C0000CB000020C4
S11318B0A11400000F340000BD11000090B585B0E4
S11318C000AF0023FB60FB1D01221A70264BBB6096
S11318D0BB685B78002B02D10A235B423FE0BB6804
S11318E05B8E002B36D0BB681878BB68598EFA1D06
S11318F001231E4CA0470300FB60FB68002B01D0B2
S1131900FB682CE0FB1D1B78002B23D1FB6826E031
S1131910BB681878BB68998CBB6840331C00BB68F3
S113192036229B5C9BB22200104CA0470300FB6054
S1131930FB68002B01D0FB6811E0BB684033180042
S11319400B4B98470300FB60FB1D1B78013BDAB28D
S1131950FB1D1A70FB1D1B78002BD9D10023180026
S1131960BD4605B090BDC04674000020010C0000C7
S1131970CD0F000080B500AF044B4A221A70034B10
S113198000225A70C046BD4680BDC0467400002087
S113199080B500AF024B5B781800BD4680BDC046E1
S11319A07400002080B582B000AF0200FB1D1A70E5
S11319B0034BFA1D12785A70C046BD4602B080BD72
S11319C07400002080B500AF044B012200211800F0
S11319D0034B984703001800BD4680BD74000020E7
S11319E09915000080B58AB000AFF860B960BB1DDE
S11319F01A80FB68143B7B627B6A9A8B1423FB1866
S1131A001A80BB1D1A881423FB185A601423FB1870
S1131A100C4A5A801423FB18BA689A607B6A142211
S1131A20BA1811001800084B984703003B623B6A40
S1131A30002B01D03B6A01E0BB1D1B881800BD468A
S1131A400AB080BD0180FFFFC52C000080B58AB0BC
S1131A5000AFF860B960BB1D1A80FB68143B7B6261
S1131A607B6A9A8B1423FB181A80BB1D1A881423D3
S1131A70FB185A601423FB180C4A5A801423FB18D1
S1131A80BA689A607B6A1422BA1811001800084BCD
S1131A90984703003B623B6A002B01D03B6A01E09C
S1131AA0BB1D1B881800BD460AB080BD0080FFFF27
S1131AB0C52C000080B584B000AF786039607B68C5
S1131AC05A1E9341DBB20E495E2218000D4B984713
S1131AD07B683A68110018000B4B98470300FB60C1
S1131AE0FB68002B01D0FB6806E07B68074A9A611B
S1131AF07B68074A5A6100231800BD4604B080BDC4
S1131B00D84200005D1E0000A12A0000E519000073
S1131B104D1A000080B582B000AF78607B68180071
S1131B20034B984703001800BD4602B080BDC04671
S1131B30E92A000080B584B000AFF8607A600A2317
S1131B40FB180A1C1A800A23FB181B889B059B0D93
S1131B501AB27B6819B28023DB000B401BB213431B
S1131B601BB29AB2FB689A83FB689B8B1800BD4634
S1131B7004B080BD80B582B000AF786039607B6806
S1131B8014331A003B681A6000231800BD4602B0E3
S1131B9080BD000080B584B000AFF860B960BB1DA3
S1131BA01A80FB68002B04D0BB68002B01D00123F2
S1131BB000E000231A1C01231340DBB2084934223D
S1131BC01800084B9847FB681B68BA1D1288B9684F
S1131BD0F868984703001800BD4604B080BDC046AD
S1131BE0F44200005D1E000080B584B000AFF860D0
S1131BF0B960BB1D1A80FB68002B04D0BB68002BA6
S1131C0001D0012300E000231A1C01231340DBB29E
S1131C1008493D221800084B9847FB685B68BA1DC9
S1131C201288B968F868984703001800BD4604B0E4
S1131C3080BDC046F44200005D1E000080B582B045
S1131C4000AF78607B681B681800BD4602B080BD99
S1131C5080B582B000AF78607B68002B02D07B68CF
S1131C601B6800E000231800BD4602B080BD0000E0
S1131C7080B584B000AFF860B9607A60FB68002B6F
S1131C8004D0BB68002B01D0012300E000231A1C00
S1131C9001231340DBB20B493B2218000A4B98473F
S1131CA0FB68BA6811001800084B9847FB680022CB
S1131CB01A61FB68064A1A6000231800BD4604B086
S1131CC080BDC046084300005D1E00004D22000098
S1131CD0991D000080B588B000AFF860B9607A60E3
S1131CE00023BB61FB681800274B984703003B6146
S1131CF03B69002B06D1BA68FB6811001800234B1E
S1131D0098473DE03B69FB6124E0FB695A687B68C6
S1131D109A4208D8FB699A68FB6959687B68CB1AB0
S1131D20D3187B6109E0FB699A68FB695B68D21888
S1131D307B685B42D31801337B61BB689A687B691B
S1131D409A420BD9FB69BB61FB691800104B984799
S1131D500300FB61FB69002BD7D100E0C046FA69A0
S1131D603B699A4206D1BA68FB6811001800074B18
S1131D70984705E0BA68BB6911001800054B9847FD
S1131D80BD4608B080BDC0463D1C0000BD1E00001D
S1131D90511C0000151F000080B586B000AF7860AC
S1131DA07B683B613B6914331800294B9847030057
S1131DB07B613B691B695A1C3B691A613B691B695E
S1131DC0FB603B691B7EDBB21A000123134006D182
S1131DD03B691B7EDBB21A000223134029D03B6906
S1131DE01B7EDBB202221343DAB23B691A762BE084
S1131DF07B69BB603B6914331800164B9847BB687A
S1131E001B7C012B09D1BB68FA685A603B69143307
S1131E10FA68B9681800104B98473B6914331800E6
S1131E200B4B984703007B61BB68DB68BA68100002
S1131E3098477B69002B07D07B695B68FA68D21AE4
S1131E407B699B689A42D3D2BD4606B080BDC0462A
S1131E503D1C0000351F0000D51C000080B584B077
S1131E6000AFB9607A600F23FB18021C1A700F23AD
S1131E70FB181B7801225340DBB2002B00D000BEBC
S1131E80C046BD4604B080BD80B584B000AF786064
S1131E9039607B681B68FB6008E0FA683B689A421B
S1131EA001D1012306E0FB681B68FB60FB68002B83
S1131EB0F3D100231800BD4604B080BD80B582B0C4
S1131EC000AF786039603A687B68110018000E4BE7
S1131ED0984703005A1E9341DBB201225340DBB200
S1131EE01A1C01231340DBB2084939221800084B9D
S1131EF098477B681A683B681A607B683A681A607E
S1131F00C046BD4602B080BD891E000020430000CB
S1131F105D1E000080B582B000AF786039607B68D8
S1131F201A683B681A607B683A681A60C046BD4606
S1131F3002B080BD80B584B000AF78607B681B6858
S1131F40002B09D07B681B68FB607B681B681A68E0
S1131F507B681A60FB6800E000231800BD4604B0EB
S1131F6080BD80B582B000AF786039607B685A6804
S1131F703B685B001E210B401A437B685A60C046D5
S1131F80BD4602B080BD000080B500AF084B002103
S1131F901800084B9847084B9847084B9847084B3C
S1131FA09847FF20074B9847C046BD4680BDC046B2
S1131FB000400041631F0000212100002131000086
S1131FC0E13100002520000080B582B000AF7860C8
S1131FD0C0467B685B781B06DB0FDBB2002BF8D1B5
S1131FE0C046BD4602B080BD80B582B000AF786007
S1131FF039607B683A685A607B681800024B9847DE
S1132000C046BD4602B080BDC91F000080B582B085
S113201000AF786039607B683A689A60C046BD4614
S113202002B080BD80B582B000AF78607B680122C9
S113203013400CD080235B00074A19001000074BA3
S11320409847074A044B11001800064B9847C046AE
S1132050BD4602B080BDC046000C00400D2000000B
S113206000070100E91F000080B582B000AF78606E
S11320700A00FB1C1A707B681B7ADAB2FB1C1B7803
S113208007210B40DBB21343DAB27B681A72C046F5
S1132090BD4602B080BD80B582B000AF78600A0052
S11320A0FB1C1A707B685B7ADAB2FB1C1B78072175
S11320B00B40DBB21343DAB27B685A72C046BD46AA
S11320C002B080BD80B582B000AF78600A00FB1C0E
S11320D01A707B689B7ADAB2FB1C1B7807210B40D1
S11320E0DBB21343DAB27B689A72C046BD4602B0D3
S11320F080BD80B582B000AF78600A00FB1C1A7006
S11321007B68DB7ADAB2FB1C1B7807210B40DBB25D
S11321101343DAB27B68DA72C046BD4602B080BDB2
S113212080B500AF0B4B002118000B4B9847094BAF
S113213000211800094B9847064B00211800084B52
S11321409847044B00211800064B9847C046BD46EB
S113215080BDC046000400406920000097200000B4
S1132160C5200000F320000080B582B000AF786085
S1132170C0467B689B7A1B06DB0FDBB2002BF8D1D1
S1132180C046BD4602B080BD80B582B000AF786065
S11321907B6801221A72C046BD4602B080BD80B57C
S11321A082B000AF78607B681B7ADBB21800BD4652
S11321B002B080BD80B582B000AF78607B68012238
S11321C0DA71C046BD4602B080BD000080B582B061
S11321D000AF78600A00BB1C1A807B68BA1C1288A6
S11321E01A807B681800034B9847C046BD4602B06E
S11321F080BDC0466921000080B586B000AFF8609C
S11322007A600B23FB180A1C1A700B23FB181A782C
S1132210FB6806329200D3587B6100237B617A69A4
S11322207B6813437B610B23FB181A78FB68063227
S113223092007969D150FB681800034B9847C04657
S1132240BD4606B080BDC0466921000080B584B09B
S113225000AF786039607B685A1E9341DBB2214934
S113226033221800204B98477B683A68DA607B6811
S1132270DB68012118001D4B98477B68DB68180058
S11322801B4B98470E23FB1800221A800E23FB18C1
S11322900E22BA1812881A800E23FB180E22BA18BE
S11322A0128880210A431A807B68DA680E23FB189F
S11322B01B88190010000D4B98477B68D868802351
S11322C0DB001A0000210B4B98477B68DB68180081
S11322D0094B9847094B7A681A6000231800BD46D9
S11322E004B080BD404300005D1E0000CD2100000D
S11322F069210000F9210000B5210000340000200C
S113230080B584B000AF78607B68DB6818000F4B41
S1132310984703001A000E23FB181A800E23FB189B
S11323201B88012213400DD07B681B68002B04D04E
S11323307B681B687A68100098477B68DB68180024
S1132340034B9847C046BD4604B080BD9F210000A2
S11323508921000080B500AF00231800BD4680BD70
S113236080B500AF034B1B681800034B9847C04669
S1132370BD4680BD340000200123000080B582B03A
S113238000AF78603960C0467B68DB693A68134007
S1132390FAD1C046BD4602B080BD80B582B000AF60
S11323A0786039607B68DB693A6813405A1E934150
S11323B0DBB21800BD4602B080BD80B582B000AF6C
S11323C078607B6801221A76C046BD4602B080BDA3
S11323D080B582B000AF78607B6802221A76C0466E
S11323E0BD4602B080BD80B582B000AF78607B6826
S11323F01B7EDBB21800BD4602B080BD80B582B042
S113240000AF78607B681B6802221A437B681A60FD
S11324107B6803211800034B9847C046BD4602B0B1
S113242080BDC0467D23000080B582B000AF7860D7
S11324307B681B68022293431A007B681A607B68DE
S113244003211800024B9847C046BD4602B080BD28
S11324507D23000080B584B000AF78607B681B6882
S1132460FB60FB68DB0E01221340FB60FB685A1E15
S11324709341DBB21800BD4604B080BD80B584B082
S113248000AF786039607B6803211800064B9847D9
S11324907B681B68FB60FB683A681340FB60FB6861
S11324A01800BD4604B080BD7D23000080B582B015
S11324B000AF786039607B683A681A607B680321F2
S11324C01800034B9847C046BD4602B080BDC046C5
S11324D07D23000080B582B000AF78607B685B68C4
S11324E0802252001A437B685A607B6804211800DA
S11324F0024B9847C046BD4602B080BD7D23000014
S113250080B582B000AF78607B685B68064A1A4089
S11325107B685A607B6804211800044B9847C046C6
S1132520BD4602B080BDC046FFFEFFFF7D23000014
S113253080B582B000AF78607B685B688022D2028D
S11325401A437B685A607B6804211800024B984741
S1132550C046BD4602B080BD7D23000080B582B078
S113256000AF78607B685B68064A1A407B685A60F3
S11325707B6804211800044B9847C046BD4602B04E
S113258080BDC046FFFFFBFF7D23000080B582B005
S113259000AF786039607B685A683B681904C023CF
S11325A09B020B401A437B685A607B680421180025
S11325B0024B9847C046BD4602B080BD7D23000053
S11325C080B582B000AF786039607B683A685A6041
S11325D07B6804211800034B9847C046BD4602B0EF
S11325E080BDC0467D23000080B582B000AF786016
S11325F039607B683A68DA60C046BD4602B080BD87
S113260080B584B000AF78600A00FB1C1A707B6848
S11326105B6AFB60FB680B4A1340FB60FB1C1B7886
S11326209B031A00FB681343FB607B68FA685A62D9
S11326307B6804211800044B9847C046BD4604B08B
S113264080BDC046FFBFFFFF7D23000080B582B080
S113265000AF786039607B683A685A627B6804210D
S11326601800034B9847C046BD4602B080BDC04623
S11326707D23000080B582B000AF78607B680421C0
S11326801800044B98477B685B6A1800BD4602B08B
S113269080BDC0467D23000080B582B000AF786065
S11326A00A00FB1C1A707B68FA1C282112785A5401
S11326B07B6804211800034B9847C046BD4602B00E
S11326C080BDC0467D23000080B582B000AF786035
S11326D07B6804211800054B98477B6828229B5C83
S11326E0DBB21800BD4602B080BDC0467D230000A9
S11326F080B582B000AF78607B6804211800074B76
S113270098477B685B8B9BB21B099BB203221340E7
S11327109BB21800BD4602B080BDC0467D230000B8
S113272080B582B000AF78607B6804211800044B48
S113273098477B685B8B9BB21800BD4602B080BD96
S11327407D23000080B582B000AF78600A00BB1C16
S11327501A807B68BA1C12885A837B68042118008B
S1132760024B9847C046BD4602B080BD7D230000A1
S113277080B582B000AF78607B68044A94466344B5
S11327809B0ADBB21800BD4602B080BD00F8FFBD55
S113279090B585B000AF78600E23FC187B681800F4
S11327A01A4B9847030023700F23FB1800221A705A
S11327B019E00F23FB181A78154913005B009B18C6
S11327C0DB005B5C0E22BA1812789A4204D10F2304
S11327D0FB181B785BB214E00F23FB181A780F2345
S11327E0FB1801321A700F23FB181B78002BE0D062
S11327F0E6239A00074B19000020074B9847012352
S11328005B421800BD4605B090BDC046712700006C
S113281000000020584300005D1E000080B582B017
S113282000AF78607B6803211800034B9847C046CB
S1132830BD4602B080BDC0468D25000090B587B06E
S113284000AFF860B9607A60FB681800874B98475E
S113285003007B611223FC18FB681800844B984723
S113286003002380BB680122134000D1A3E012239C
S1132870FB181B880222134020D0FB6818007D4BF4
S113288098477B685B889BB28022520113439AB2BB
S11328907B685A807B685B889BB2774A13409AB204
S11328A07B685A801223FB181B880122134002D034
S11328B005235B42D6E004235B42D3E01223FB18DA
S11328C01B880422134021D07B685B68002B08DD41
S11328D07B685B889BB28022520113439AB27B6867
S11328E05A807B685B889BB21BB2002B03DAFB68BF
S11328F01800624B98477B685B889BB25E4A134022
S11329009AB27B685A8002235B42ABE07B685B88A7
S11329109BB21A008023DB00134021D07B681B8804
S11329201B125B001A0006231A401400FB681800EF
S1132930534B984702008023DB0113402343F122C9
S11329401A43FB68110018004E4B98477B685B885C
S11329509BB24D4A13409AB27B685A80002381E0AF
S11329607B685B68002B12D17B685B889BB21BB2CF
S1132970002B03DAFB681800404B98477B685B88A0
S11329809BB23D4A13409AB27B685A8011E07B683F
S11329909B681A78FB68110018003C4B98477B68C9
S11329A09B685A1C7B689A607B685B685A1E7B68CC
S11329B05A60002356E0BB680222134051D07B6862
S11329C05B68002B46D01223FB181B88042213409B
S11329D040D17B685B685A1E7B685A607B685B6881
S11329E0002B02D17B69002B06D07B685B68012B2E
S11329F006D17B69002B03D0FB681800244B984751
S1132A007B685B68002B15D17B685B889BB21BB22B
S1132A10002B07DAFB6818001E4B9847FB68180068
S1132A20164B98477B685B889BB2134A13409AB253
S1132A307B685A807B689C68621C7B689A60FB6830
S1132A401800154B984703002370FB681800134BBC
S1132A50984706E0FB681800104B984702235B4236
S1132A6000E000231800BD4607B090BD55240000C7
S1132A7021270000BB230000FFFEFFFF1D280000EC
S1132A80752600004D260000FFFBFFFF992600007D
S1132A903125000001250000C9260000D1230000D3
S1132AA080B582B000AF786039607B685A1E93416C
S1132AB0DBB2094A09491800094B98477B683A6810
S1132AC01A617B683A6811001800064B98470300A6
S1132AD01800BD4602B080BD070500005843000041
S1132AE05D1E0000912E000080B582B000AF7860BA
S1132AF07B685A1E9341DBB2074A08491800084B09
S1132B0098477B681B691800064B98470300180018
S1132B10BD4602B080BDC0462405000058430000F5
S1132B205D1E0000012E000080B584B000AF786007
S1132B303960124BFB607B681B69BB60BB68180083
S1132B400F4B984703001A003B681A60FB685A1E33
S1132B50FA60002B02D105235B420AE03B681B6844
S1132B600122134004D13B681B6802221340E5D0C4
S1132B7000231800BD4604B080BDC046FFFF00001E
S1132B80E723000090B587B000AF78607B681B69CD
S1132B907B617B683B617B6918003F4B984703006E
S1132BA0FB607B685A1E9341DBB23C4A3C491800E7
S1132BB03C4B98473B695B68012B07D1FB68002BB2
S1132BC004D07B691800384B984703E07B691800F0
S1132BD0364B98473B691B881A008023DB0013405F
S1132BE028D03B695B889BB21A000123134008D0AC
S1132BF03B695B889BB28022D20013439AB23B6943
S1132C005A803B691B885B001A00294B1A40140048
S1132C107B691800274B984702008023DB0113408F
S1132C202343802212021A437B6911001800224BAD
S1132C3098471EE03B691B885B00FF2213403A69FA
S1132C40528892B2110001220A40511E8A41D2B226
S1132C5013431C007B691800164B9847020080231D
S1132C60DB01134022001A437B6911001800124B48
S1132C7098470823FA187B68110018000F4B9847EF
S1132C80B9683A697B6918000D4B9847030018002E
S1132C90BD4607B090BDC046552400009405000011
S1132CA0584300005D1E0000312500005D25000032
S1132CB0FE070000752600004D260000292B0000A9
S1132CC03D28000090B587B000AF786039607B681C
S1132CD01B693B617B685A1E9341DBB23E4A3F4904
S1132CE018003F4B98477B681B695A1E9341D8B222
S1132CF0B823DA00394B1900394B98473B685A1E00
S1132D009341DBB2374A35491800354B98477B6805
S1132D105B889BB21A0080235B00134002D0062319
S1132D205B4254E03B685B889BB2802252001343B1
S1132D309AB23B685A807B683A6813CA13C33B69EA
S1132D401800294B98477B681800284B98470300C4
S1132D507B617B69002B31D07B685B889BB2244A02
S1132D6013409AB27B685A807B6930E00C23FA18CE
S1132D707B68110018001F4B984703007B617B6937
S1132D80002B13D03B685B889BB21BB2002B03DA89
S1132D903B691800184B98477B685B889BB2144AC0
S1132DA013409AB27B685A807B6910E0F9687A68AC
S1132DB03B691800114B984703007B617B685B8873
S1132DC09BB21A0080235B001340CFD17B691800AB
S1132DD0BD4607B090BDC046BF0500005843000083
S1132DE05D1E0000C1050000D5240000852B0000F5
S1132DF0FFFEFFFF292B00001D2800003D280000D6
S1132E0080B584B000AF78601A4BFB600423BB60CC
S1132E107B685A1E9341DBB2174A18491800184BB5
S1132E2098477B681800174B984716E0FB68013BEE
S1132E30FB60FB68002B10DCBB68013BBB60BB681C
S1132E40002B07D00B4BFB607B68102118000E4B46
S1132E50984702E006235B4207E07B6818000B4BAF
S1132E6098470300012BE1D100231800BD4604B0AC
S1132E7080BDC046FFFF0000F40500005843000079
S1132E805D1E0000FD23000045270000F126000020
S1132E9080B584B000AF786039603B6818004F4B50
S1132EA0984703001A000F23FB181A703B6801218E
S1132EB018004B4B984703001A0001235340DBB220
S1132EC0002B25D00F23FB181A78464913005B000A
S1132ED09B18DB00CB1804331B681C221340BB6017
S1132EE03B6802211800404B9847031E08D03B68FA
S1132EF018003E4B98473B68022118003C4B98470A
S1132F00BB6801221A433B6811001800394B9847EB
S1132F103B6801211800364B98470F23FB181A7899
S1132F20304913005B009B18DB00CB1804331A688C
S1132F303B68110018002F4B98470F23FB181A7891
S1132F40284913005B009B18DB00CB1808331A6870
S1132F503B6811001800284B98470F23FB181A7878
S1132F60204913005B009B18DB00CB180C331A6854
S1132F703B6811001800214B98470F23FB181A785F
S1132F80184913005B009B18DB00CB1804331B6843
S1132F901B0E9BB2032213409AB27B689A817B6812
S1132FA09B8901229A429B415B42DAB23B68110041
S1132FB01800134B98470F23FB181A78094913007C
S1132FC05B009B18DB00CB1812331A887B68DA810C
S1132FD000231800BD4604B080BDC0469127000000
S1132FE09B230000000000207D2400002924000011
S1132FF07D230000AD240000C1250000E925000068
S11330000126000080B582B000AF78607B68DB6881
S1133010DB08012213405A1E9341DBB21800BD465F
S113302002B080BD80B582B000AF78607B689B69D8
S113303002221A437B689A61C046BD4602B080BD35
S113304080B582B000AF78607B689B6902229343AD
S11330501A007B689A61C046BD4602B080BD80B547
S113306084B000AF78600F23FB187A68127F1A705F
S11330700F23FB180F22BA1812781F210A401A7066
S11330800F23FB181B781800BD4604B080BD80B523
S113309082B000AF78600A00FB1C1A707B68FA1CCF
S11330A012781A77C046BD4602B080BD80B582B0A2
S11330B000AF78607B681B6A80221A437B681A62BF
S11330C0C046BD4602B080BD80B584B000AF786014
S11330D07B681B6AFB60FB681B0C1B051B0DFB60FC
S11330E0FB681800BD4604B080BD80B584B000AF55
S11330F078607B681B6AFB60FB689B0FFB60FB6866
S11331001800BD4604B080BD80B582B000AF7860C1
S113311039607B683A681A62C046BD4602B080BD19
S113312080B582B000AF244B7B607B681800234BD2
S113313098470200BB1C1A807B681800204B9847F4
S113314003009A07BB1C1B881B0419001D4B0B4072
S1133150134302221A437B68110018001A4B984744
S11331607B681800194B98477B681800184B9847E0
S113317003001A00BB1C1A80BB1C1B88DBB21F2275
S11331801340DAB27B6811001800124B9847C0460E
S11331907B681800104B984703001A000123534022
S11331A0DBB2002BF4D17B6818000C4B9847C04667
S11331B0BD4602B080BDC04600080040C9300000D2
S11331C0EB3000000000FF0F093100002530000043
S11331D05F3000008F30000005300000AD3000008B
S11331E080B582B000AF054B7B607B681800044B50
S11331F09847C046BD4602B080BDC04600080040A6
S11332004130000080B584B000AF78600023FB60DB
S1133210FB681800BD4604B080BD80B584B000AF23
S113322078600023FB60FB681800BD4604B080BDD5
S113323080B582B000AF00237B600B4B0B4A1A6051
S11332400B4B0C4A1A600C4B98470C4B98470300E5
S11332507B607B68002B01D07B6800E000231800B2
S1133260BD4602B080BDC046C80100200532000042
S1133270C00000201B3200007519000085170000F3
S113328080B500AFC046BD4680BD80B500AFC04626
S1133290BD4680BD80B500AFC046BD4680BD80B58B
S11332A000AF00231800BD4680BD000090B583B078
S11332B000AFFC1D1E4B984703002370FB1D1B78B9
S11332C0033B042B21D89A001A4BD3181B689F4642
S11332D0194B984703003B603B68002B17D0022032
S11332E0164B984713E00220144B984710E0022035
S11332F0124B98470CE00220104B984708E0104B03
S1133300984702200D4B984702E0C04600E0C046B3
S11333100C4B984703001A0001235340DBB2002BE7
S113332001D0094B9847C046BD4603B090BDC04686
S11333309119000088430000D9150000A519000068
S1133340C51900009F320000BD18000080B582B08E
S113335000AF094B9847094B9847094B9847094BCD
S1133360984703007B607B68002B02D00820064B43
S11333709847064B9847FCE7813200008B320000E7
S11333809532000031320000A5190000AD32000072
S113339080B500AF024B9847024B9847FEE7C04602
S11333A0150100004D33000070B500260C4D0D4C86
S11333B0641BA410A64209D1002600F0EFFF0A4DB9
S11333C00A4C641BA410A64205D170BDB300EB588F
S11333D098470136EEE7B300EB5898470136F2E719
S11333E0A8430000A8430000A8430000AC43000029
S11333F030B50024A24201D1002005E0035D651C24
S11334000C5DA34201D0181B30BD2C00F2E7002351
S113341010B59A4200D110BDCC5CC4540133F8E716
S11334202E2E2F68706C2F706F72742F68706C5F03
S11334306770696F5F626173652E68002E2E2F6856
S1133440706C2F706D2F68706C5F706D5F6261734C
S1133450652E68004F42505F52415720563100009C
S1133460A43910AC2014280015F4EA007902C7002E
S11334707500D700000000000000000000000000FC
S11334800000000000000000000000000000000038
S11334900000000000000000000000000000000028
S11334A00000000000000000000000000000000018
S11334B00000000000000000000000000000000008
S11334C000000000000000000000000000000000F8
S11334D000000000000000000000000000000000E8
S11334E000000000000000000000000000000000D8
S11334F000000000000000000000000000000000C8
S113350000000000000000000000000000000000B7
S113351000000000000000000000000000000000A7
S11335200000000000000000000000000000000097
S11335300000000000000000000000000000000087
S1133540000000000000000000007501D70000002A
S11335500000000000000000000000000000000067
S11335600000000000000000000000000000000057
S11335700000000000000000000000000000000047
S11335800000000000000000000000000000000037
S11335900000000000000000000000000000000027
S11335A00000000000000000000000000000000017
S11335B00000000000000000000000000000000007
S11335C000000000000000000000000000000000F7
S11335D000000000000000000000000000000000E7
S11335E000000000000000000000000000000000D7
S11335F000000000000000000000000000000000C7
S113360000000000000000000000000000000000B6
S113361000000000000000000000000000000000A6
S1133620000000007502D700000000000000000048
S11336300000000000000000000000000000000086
S11336400000000000000000000000000000000076
S11336500000000000000000000000000000000066
S11336600000000000000000000000000000000056
S11336700000000000000000000000000000000046
S11336800000000000000000000000000000000036
S11336900000000000000000000000000000000026
S11336A00000000000000000000000000000000016
S11336B00000000000000000000000000000000006
S11336C000000000000000000000000000000000F6
S11336D000000000000000000000000000000000E6
S11336E000000000000000000000000000000000D6
S11336F0000000000000000000000000000075034E
S1133700D7000000000000000000000000000000DE
S113371000000000000000000000000000000000A5
S11337200000000000000000000000000000000095
S11337300000000000000000000000000000000085
S11337400000000000000000000000000000000075
S11337500000000000000000000000000000000065
S11337600000000000000000000000000000000055
S11337700000000000000000000000000000000045
S11337800000000000000000000000000000000035
S11337900000000000000000000000000000000025
S11337A00000000000000000000000000000000015
S11337B00000000000000000000000000000000005
S11337C000000000000000000000000000000000F5
S11337D000000000000000007504D7000000000095
S11337E000000000000000000000000000000000D5
S11337F000000000000000000000000000000000C5
S113380000000000000000000000000000000000B4
S113381000000000000000000000000000000000A4
S11338200000000000000000000000000000000094
S11338300000000000000000000000000000000084
S11338400000000000000000000000000000000074
S11338500000000000000000000000000000000064
S11338600000000000000000000000000000000054
S11338700000000000000000000000000000000044
S11338800000000000000000000000000000000034
S11338900000000000000000000000000000000024
S11338A00000000000000000000000000000000014
S11338B000007505D70000000000000000000000B3
S11338C000000000000000000000000000000000F4
S11338D000000000000000000000000000000000E4
S11338E000000000000000000000000000000000D4
S11338F000000000000000000000000000000000C4
S113390000000000000000000000000000000000B3
S113391000000000000000000000000000000000A3
S11339200000000000000000000000000000000093
S11339300000000000000000000000000000000083
S11339400000000000000000000000000000000073
S11339500000000000000000000000000000000063
S11339600000000000000000000000000000000053
S11339700000000000000000000000000000000043
S113398000000000000000000000000044004900A6
S11339900000000000000000000000000000000023
S11339A00000000000000000000000000000000013
S11339B00000000000000000000000000000000003
S11339C000000000000000000000000000000000F3
S11339D000000000000000002600403C250000001C
S11339E001010100000000000000000000000000D0
S11339F000000000000000000000000000000000C3
S1133A0000000000000000000000000000000000B2
S1133A1000000000000000000000000E0021000073
S1133A200000000000000000000000000000000092
S1133A300000000000000000000000000000000E74
S1133A400121000000000000000000000000000050
S1133A500000000000000000000000000000000062
S1133A600000004700C80001000000010000000140
S1133A700000000200000FB000000000010101007E
S1133A800000000000000000000000000000000032
S1133A900000000000000000000000000000000022
S1133AA00000000000000000000000000000000012
S1133AB00000000000000000000000000000000002
S1133AC000000000000000000000000000000000F2
S1133AD000000000000000000000000000000000E2
S1133AE000000000000000000000000000000000D2
S1133AF000000000000000000000000000000000C2
S1133B0000000000000000000000000000000000B1
S1133B1000000000000000000000000000000000A1
S1133B2000000000000000000000000000006E0023
S1133B30280100E102E104B1047105A9050107218E
S1133B400741077107590731083108B10801098194
S1133B500801000100010001006E01280100F903C1
S1133B60C104A9038903F902C10291025102C100EF
S1133B70610499032103E100010001000100010037
S1133B80010001006E02280100310489040104C906
S1133B90036902D1028902610201005104D102B118
S1133BA002A9000100010001000100010001006EF2
S1133BB003280100E102E104B1047105A90501072C
S1133BC0210741077107590731083108B108010974
S1133BD0810801000100010001006E04280100F9C0
S1133BE003C104A9038903F902C10291025102C16C
S1133BF000610499032103E10001000100010001B7
S1133C0000010001006E052801003104890401044B
S1133C10C9036902D1028902610201005104D1027F
S1133C20B102A9000100010001000100010001002E
S1133C306E0628CB0FCB0FCB0FCB0FCB0FCB0FCBFD
S1133C400FCB0FCB0FCB0FCB0FCB0FCB0FCB0FCBA0
S1133C500FCB0F03000300030003006E07280300CB
S1133C6013010B011B011B011B011B011B01230180
S1133C7033010B0113011B01330143010300030052
S1133C800300030003006E08280300130113011B43
S1133C90011B01230123012301230143010B012300
S1133CA00123013B0103000300030003000300039D
S1133CB00076000300000085002A000000000000D8
S1133CC000000000000000000000000000000000F0
S1133CD000000000000000000000000000000000E0
S1133CE0000000000700073C0C32420000000800FE
S1133CF00F24000808C80000000FC40B0101008055
S1133D000F000B031B100203000E4B020F000F01E8
S1133D100B00000000000000000000001200020080
S1133D200013001001000003000000000000000068
S1133D300000000018001300000000000000000054
S1133D400000000000000000000019001B0300A890
S1133D50612C4CD859204E00000000C8C409080743
S1133D6000000000000000001B000700000000002D
S1133D700000280007000000000000002A000E00D8
S1133D80000000000000000000000000002E0018E9
S1133D90000010100000000000FF00000000000000
S1133DA000000000000000003800240000000000B3
S1133DB000000000000000000000000000000000FF
S1133DC00000000000000000000000000000003DB2
S1133DD0000500000050C33D010500000030753DA2
S1133DE0020500000000003D030500000000003D46
S1133DF0040500000000003D05050000000000412E
S1133E000017010800000000000000000A00000084
S1133E100000000000000000004101170000000045
S1133E20000000000000000000000000000000008E
S1133E300000004102170000000000000000000024
S1133E400000000000000000000000000046000A1E
S1133E500002003D00000101000046010A000200CA
S1133E603D00010105000046020A000B003D00016F
S1133E700109000046030A000A003D0001010D008B
S1133E800046040A010D00080000060E0003460562
S1133E900A010D004600000012000046060A010E49
S1133EA0004600010013000046070A010E00460008
S1133EB0020014000046080A010E00460003001523
S1133EC0000046090A010E000800000A1600024616
S1133ED00A0A00000000000000000000460B0A006F
S1133EE0000000000000000000460C0A0000000072
S1133EF0000000000000460D0A0000000000000061
S1133F00000000460E0A000000000000000000004F
S1133F10460F0A0000000000000000000046100ADE
S1133F200000000000000000000046110A0000002C
S1133F300000000000000046120A0000000000001B
S1133F400000000046130A0000000000000000000A
S1133F50004800597D00000100FF0100000A000034
S1133F60000A21460D0E005D0137460555731818E9
S1133F7018181810101010100000230001374605FF
S1133F80557320202020201818181818000A2D53C3
S1133F9009374605558C40404040402020202020D1
S1133FA0000800850000000302000000004E000C21
S1133FB00000000000000000000000004F000400AA
S1133FC00000004F0104000000004F020400000044
S1133FD00050000E0100000000C500460548000026
S1133FE000006400488700000000000500001B3C3E
S1133FF00000FF0400000F2D00103C0000CF020061
S1134000000E0A370A2300000A3C0A0002020100DB
S11340100A42DC3205000300000008000000000032
S11340200000000000000000000000000065002007
S1134030000000000000000000000000000000007C
S1134040000000000000000000000000000000006C
S113405068000B011C4614230816461423086C0040
S11340604B00000000000000000000000000000001
S1134070000000000000000000000000000000003C
S1134080000000000000000000000000000000002C
S1134090000000000000000000000000000000001C
S11340A00000000000000000000000006D00110A84
S11340B000050000000000000000000000000000F7
S11340C06F0020000841321010050300FF000000BB
S11340D000000000000500352D0000000000000075
S11340E00000006F01200008000000000000000034
S11340F000000000000000000000000000000000BC
S11341000000000000006F0220000841321818006F
S1134110000000000000000000000000000000009B
S11341200000000000000000007000050000000016
S1134130007001050000000000710003010C008103
S1134140000600000000000054120000701200007D
S11341508E120000A2130000A0120000A21300009F
S1134160A2130000A2130000A2130000A213000077
S1134170F4120000A2130000A2130000A213000016
S11341803E130000A2130000A2130000A2130000BB
S1134190A2130000A21300000E130000A2130000DB
S11341A0A2130000A2130000A2130000A213000037
S11341B0A2130000A2130000A2130000A213000027
S11341C0A2130000A2130000A21300004C1300006D
S11341D0A2130000A2130000A2130000A213000007
S11341E0A21300002C130000A2130000A21300006D
S11341F0A2130000A2130000A2130000A2130000E7
S1134200A2130000A2130000A2130000A2130000D6
S1134210A2130000A2130000A2130000A2130000C6
S1134220A2130000A2130000A2130000A2130000B6
S1134230A2130000A2130000A2130000A2130000A6
S1134240A2130000A2130000A2130000A213000096
S1134250A2130000A2130000A2130000A213000086
S1134260A2130000A2130000A2130000A213000076
S1134270A2130000A2130000A2130000A213000066
S1134280A2130000A2130000A2130000A213000056
S1134290A2130000A2130000A2130000A213000046
S11342A0A2130000A2130000A2130000A213000036
S11342B0A2130000A2130000A2130000A213000026
S11342C0A21300005E1300004F42505F524157207A
S11342D0563100001B0080002E2E2F68616C2F7356
S11342E072632F68616C5F6932635F6D5F73796EAF
S11342F0632E63002E2E2F68616C2F7372632F68F8
S1134300616C5F696F2E63002E2E2F68616C2F73B2
S113431072632F68616C5F74696D65722E6300004F
S11343202E2E2F68616C2F7574696C732F737263F2
S11343302F7574696C735F6C6973742E630000006D
S11343402E2E2F68706C2F7274632F68706C5F72DE
S113435074632E63000000002E2E2F68706C2F7380
S11343606572636F6D2F68706C5F736572636F6DD8
S11343702E630000000000000000000000000000A8
S11343800000000000000000D0320000E63200000F
S1134390EE320000F6320000FE320000F8B5C046EE
S11343A0F8BC08BC9E467047DD000000F8B5C04666
S10F43B0F8BC08BC9E467047B500000035
S11343BC0000000014002000000100003132000055
S10B43CC0000D700006CDC02C4
S9030000FC
